:020000040800F2
:10000000681C0020091B00084B1900084D19000846
:100010004F1900085119000853190008000000008A
:100020000000000000000000000000005719000858
:100030005519000800000000591900085B19000854
:100040005D1900085F1900086119000863190008AC
:100050006519000867190008691900086B1900087C
:100060006D1900086F19000871190008731900084C
:100070007519000877190008791900087B1900081C
:100080007D1900087F1900088119000883190008EC
:100090008519000887190008891900088B190008BC
:1000A0008D1900088F19000891190008931900088C
:1000B0009519000897190008991900089B1900085C
:1000C0009D1900089F190008A1190008A31900082C
:1000D000A5190008A7190008A9190008AB190008FC
:1000E000AD190008AF190008B1190008B3190008CC
:1000F000B5190008B7190008B9190008BB1900089C
:10010000BD190008BF190008C1190008C31900086B
:10011000C5190008C7190008C9190008CB1900083B
:10012000CD190008CF190008D1190008D31900080B
:100130002DE9F04385B004000D00002000260027C3
:100140005FF000085FF00009A146218A08004CF624
:10015000FF710840E98808432082A0894EF6F31118
:100160000840A9882A8911436A8911430843A0815C
:10017000A08A4FF6FF410840A9890843A08200A841
:1001800000F003FD1048814501D1039E00E0029E6E
:10019000192000FB06F029688900B0FBF1F7642004
:1001A000B7FBF0F000010109642202FB11785FEA5D
:1001B000081132316422B1FBF2F111F00F01084352
:1001C000208105B0BDE8F08300380140C9B20029A4
:1001D00004D0818951F40051818104E081894DF678
:1001E000FF72114081817047C905C90D8180704738
:1001F0008088C005C00D704700220088084201D0E9
:10020000012200E000221000C0B2704710B450F884
:10021000041B81B102681218001D50F8043BDC0772
:1002200044BFA9F10104E31852F8044B43F8044B0E
:10023000091FF9D1EBE710BC7047000030B4002271
:1002400000230BE01400A4B2057895EA2424064D9F
:1002500035F8144094EA0222401C5B1C8B42F1DB0F
:10026000100080B230BC70471C130008C0B210F000
:100270001F000849405C7047C0B210F01F01054ADA
:10028000895CC0B2884202D110F01F0000E0FF205C
:10029000704700009C1A0008DFF828100843DFF8B8
:1002A000201008607047084A11400843034908605D
:1002B00070470348054901607047000008ED00E001
:1002C0000CED00E00000FA0580FFFF1F0400FA05B6
:1002D000F0B400220026002400250023002791F816
:1002E00003C01CF00F0C624691F803C05FEACC6CAF
:1002F00001D58B781A430B781B0621D003680024A4
:1003000006E0CD78482D02D10125A5400561641C89
:10031000082C14D20125A5400E882E40AE42F6D1FD
:10032000A5000F2616FA05F7BB4312FA05F52B4375
:10033000CD78282DE5D10125A5404561E7E703608B
:100340000B884FF48074A34226D34368002420E036
:10035000012514F10806B5400E882E40AE4217D193
:10036000A5000F2616FA05F7BB4312FA05F52B4335
:10037000CD78282D04D1012514F10806B54045613A
:10038000CD78482D04D1012514F10806B54005614A
:10039000641C082CDCD34360F0BC704750F8041B8D
:1003A00061B150F8042BD30744BFA9F101039A1897
:1003B000002342F8043B091FFAD1EFE7704710B55C
:1003C0000400200001F086FA200010BD01207047D3
:1003D00010B5084979441C31074C7C441A34A142B9
:1003E00006D0081D0A68511888470146A142F8D175
:1003F00010BD00BF84160000A4160000FFFFFFFF21
:10040000511A00085D1A00080000000000000000FA
:1004100000000000000000000000000000000000DC
:1004200000000000000000000000000000000000CC
:10043000000000000000000055AAAA55A5A55A5AC0
:1004400080B5C0B2010089B2DFF8D8030068FFF7B9
:10045000CBFE4021DFF8CC030068FFF7CDFE00287B
:10046000F7D001BD38B504000D002800451E002856
:100470000FD02021DFF8AC030068FFF7BDFE002895
:10048000F3D0DFF8A0030068FFF7B2FE2070002071
:1004900001E05FF0FF3032BD70B51400C0B28028BB
:1004A00008D0C0F08280822842D01FD3842868D030
:1004B00052D37AE0DFF8700350210170DFF868034F
:1004C00080214170DFF8600300218170DFF858035C
:1004D0000021C170DFF8500300210171DFF84803EB
:1004E00000214171DFF8400384715EE0DFF83803DA
:1004F00050210170DFF8300381214170DFF82C03B7
:1005000000F0FAF9DFF820138870000ADFF81813FA
:10051000C870DFF81C0300F0EFF9DFF80C13087166
:10052000000ADFF804134871DFF8FC0284713CE034
:10053000BD4850220270BC4882224270BA48817085
:10054000080AB94AD070080CB74A1071080EB649AB
:100550004871B548847128E0B34850210170B24811
:1005600083214170B04800218170AF480021C170E3
:10057000AD4800210171AC4800214171AA48847145
:1005800013E0A94850210170A74884214170A64872
:1005900000218170A4480021C170A348002101718D
:1005A000A14800214171A048847107219E48FFF7AE
:1005B00045FE00B200129C49C8719B4C01209D4928
:1005C000098D88409B49496A08617E20FFF738FF02
:1005D0001E20FFF74BFEC0B2FFF732FF00250026BA
:1005E00008E0207890F02000C0B2FFF729FF641CDB
:1005F000761C0025082E13DAEDB2002DF1D12078FB
:100600007E2802D020787D2804D17D20FFF718FFB6
:100610000125EFE72078FFF713FF641C761CE9E75C
:1006200001208449098D88408249496A486108202F
:1006300070BD10B582B080480021017000240CE02C
:100640009DF800007E2808D17B48012101707B487D
:10065000002101707A48002101742000441C1628F2
:1006600080F28580774900A8FFF7FCFE10F1010FAA
:1006700002D15FF0FF307CE06E48C06980680121E4
:100680006C4A128C9140084207D001206949098CBC
:1006900088406849C969486106E001206549098CBC
:1006A00088406449C9690861634800780028C7D058
:1006B000022812D057D29DF800007E2803D15E4850
:1006C0000121017008E09DF80000FFF7D5FD5C49AD
:1006D0004874594802210170BFE79DF800007E2848
:1006E0000BD1554801210170544800210170544834
:1006F000002101745FF0FF303BE09DF800007D2891
:1007000003D14E4820210170A7E74D48007C4C4999
:100710009DF80020494B1B785A404254474800211D
:1007200001704748007C401C454908744448007CDF
:100730000828E9D142480078502811D14048407C2F
:100740001F280DD107213E48FFF778FD80B2C0B2C7
:100750003B49C979884203D13948407800B208E062
:100760005FF0FF3005E034480021017075E75FF06D
:10077000FF3016BD10B50400002233480168822006
:10078000FFF78AFEFFF755FF00B204283CD12E4840
:100790000078C0B22A4989798842EDD12A48006898
:1007A0004005400D26498978015527480068401CBE
:1007B00025490860244800684005400D2049C97853
:1007C000015521480068401C1F4908601E48006808
:1007D0004005400D1A49097901551B480068401C25
:1007E00019490860184800684005400D14494979C6
:1007F000015515480068401C1349086012480068FC
:100800004005B9D102200BE000B2052806D1002234
:1008100000218320FFF740FE012001E05FF0FF3060
:1008200010BD00005C14002044140020001E0008CD
:1008300020200008001C000864140020651400201B
:1008400030140020801A06006014002080B500F0EB
:10085000CAFB012806D000F077FA012000F067FB00
:10086000FFF727FD00F0BCFB10F00100002804D1C9
:10087000012000F0ECFAFFF71CFD01BD2DE9F84363
:1008800004000D00160000275FF0000800F05CFA7D
:1008900006F2FF305FEA9029352000F0AEFB04201D
:1008A0008DF800000020070008E04FF4806000FB96
:1008B000074000F05DFA8DF800007F1C0FFA89F9FF
:1008C0004F4503D29DF800000428EED0A04608E072
:1008D0002968404600F07EFA8DF800002D1D18F1C1
:1008E00004083019804503D29DF800000428EFD099
:1008F00000F035FABDE8F18300687047F0B5ADF25D
:10090000044D04000D00A00A4FF4806101FB00F6C5
:10091000300000271BE0BFB216EB8700FFF7ECFFAB
:10092000BFB200A901F82700BFB200A911EB8701EF
:10093000020A4A70BFB200A911EB8701020C8A704B
:10094000BFB200A911EB8701000EC8707F1C4FF4E5
:100950008070BFB28742DED34FF48060B4FBF0F109
:1009600001FB104100A80D544FF48060B4FBF0F17E
:1009700001FB104100A80818290A41704FF480605B
:10098000B4FBF0F101FB104100A80818290C81709C
:100990004FF48060B4FBF0F101FB104100A808188F
:1009A000290EC17000F0D0F9352000F026FB300090
:1009B00000F0DEF9042803D000F0D1F900202DE08A
:1009C000002401E0361D641C4FF48070A4B2844200
:1009D00021D2A4B200A810F82400A4B200A911EBFF
:1009E0008401497850EA0120A4B200A911EB8401E6
:1009F000897850EA0140A4B200A911EB8401C978BA
:100A000050EA0161300000F0E5F90428DAD000F086
:100A1000A6F9002002E000F0A2F901200DF2044D39
:100A2000F0BD0000DFF8A802006850F00100DFF818
:100A3000A0120860DFF89C020068DFF89C120840F2
:100A4000DFF890120860DFF888020068DFF88C1287
:100A50000840DFF87C120860DFF87402006830F4A8
:100A60008020DFF86C120860DFF86802006830F45C
:100A7000FE00DFF860120860DFF864020021016008
:100A80007047DFF84C12096831F48031DFF84022FA
:100A90001160DFF83C12096831F48021DFF8302260
:100AA0001160B0F5803F03D0B0F5802F09D011E080
:100AB000DFF81C02006850F48030DFF81412086080
:100AC00008E0DFF80C02006850F4A020DFF8001204
:100AD0000860FFE7704780B50020009000200021EB
:100AE000312000F0D2F801000098401C0090C9B2FB
:100AF000002903D10098B0F5A06FF1D1312000F0AA
:100B0000C4F8002801D0012000E00020C0B202BDDE
:100B10000022704B1B681A0032F47C120843024317
:100B20006C48026070476F49C0B20860704700218E
:100B3000684A12681100890889000143654801600C
:100B400070476448006810F00C0070470021614A4B
:100B50001268110031F0F00101435E4801607047F6
:100B600000215C4A1268110031F4E06101435948E8
:100B7000016070470021574A1268110031F460513A
:100B800051EAC00153480160704730B4002200218F
:100B9000002300244F4D2D6815F00C052A00002A73
:100BA00004D0042A05D0082A06D021E04F4901606C
:100BB00020E04F4901601DE04649096811F47011B9
:100BC000890C891C434A126812F48033002B03D12C
:100BD000484A514301600AE03E4A1268920303D535
:100BE000454A5143016002E0414A5143016001E03E
:100BF0003E4901603749096811F0F00212093F4986
:100C0000545C0168E14041603249096811F4E062D6
:100C1000120A3A49545C4168E14081602D490968F3
:100C200011F46052D20A3549545C4168E140C16018
:100C30002849096811F44042920B3149545CC1685B
:100C4000B1FBF4F1016130BC7047C9B2002905D095
:100C50002C49096808432B49086005E029490968BF
:100C600031EA0000274908607047C9B2002905D061
:100C70002549096808432449086005E022490968B4
:100C800031EA000020490860704710B400220023B8
:100C90000021C0B24409E4B22200012A02D10C4969
:100CA0000B6806E0022A02D10F490B6801E01749E0
:100CB0000B68C0B210F01F0201209040034201D027
:100CC000012100E000210800C0B210BC7047000004
:100CD00000100240041002400000FFF8FFFFF6FE83
:100CE00008100240600042422010024000127A00C8
:100CF000001BB70000093D00808D5B00F81A00085A
:100D0000141B0008181002401C100240241002405E
:100D10000021DFF81C231268110011F03801014393
:100D2000DFF80C0301607047DFF80413096831F045
:100D30001001DFF8FC221160DFF8F41209680843A3
:100D4000DFF8EC1208607047DFF8E802DFF8E8121D
:100D50000160DFF8E002DFF8E41201607047DFF8BD
:100D6000E002006850F08000DFF8D412086070479D
:100D700038B50400042540F6FF7000F077F905004F
:100D8000EDB2042D23D1DFF8B802006850F0020064
:100D9000DFF8AC120860DFF8AC020460DFF8A002F4
:100DA000006850F04000DFF89812086040F6FF70CD
:100DB00000F05CF90500EDB2012D08D0DFF88002EB
:100DC000006841F6FD710840DFF8741208602800E1
:100DD000C0B232BD70B505000E0004240F2000F033
:100DE00045F90400E4B2042C2ED1DFF85402006867
:100DF00050F00100DFF8481208602E800F2000F04C
:100E000035F90400E4B2042C12D1300C68800F20B4
:100E100000F02CF90400E4B2012C15D0DFF8200218
:100E2000006841F6FE710840DFF8141208600BE01C
:100E3000E4B2012C08D0DFF80802006841F6FE7128
:100E40000840DFF8FC1108602000C0B270BD2DE939
:100E5000F0414FF6FF744FF6FF754FF6FF764FF6F1
:100E6000FF775FF00408C04310F0FF010C00C0F3EF
:100E700007210D00010CC9B20E00000E07000F2063
:100E800000F0F4F880465FFA88F8B8F1040F4AD110
:100E90006D48694901606C486849016068480068AC
:100EA00050F0100066490860A4B2FF2C05D06848D5
:100EB00004800F2000F0DAF880465FFA88F8B8F175
:100EC000040F08D1ADB2FF2D05D0624805800F2078
:100ED00000F0CCF880465FFA88F8B8F1040F08D12A
:100EE000B6B2FF2E05D05C4806800F2000F0BEF899
:100EF00080465FFA88F8B8F1040F08D1BFB2FF2F1F
:100F000005D0564807800F2000F0B0F880465FFA01
:100F100088F8B8F1010F06D04948006841F6EF7132
:100F20000840474908604046C0B2BDE8F08138B586
:100F30000400042540F6FF7000F098F80500EDB2BB
:100F4000042D4AD140483C4901603F483B4901607B
:100F50003B48006850F02000394908603848006874
:100F600050F040003649086040F6FF7000F07EF80F
:100F70000500EDB2042D26D13148006841F6DF713D
:100F800008402F4908602E48006850F010002C4996
:100F90000860E4B2002C03D02C480021018002E05C
:100FA0002A48A521018040F6FF7000F05FF8050097
:100FB000EDB2012D11D02248006841F6EF710840D2
:100FC0001F49086009E0EDB2012D06D01C480068F9
:100FD00041F6DF7108401A4908602800C0B232BDEE
:100FE00020480068704700201D490968890701D51D
:100FF000012000E00020C0B270471B4980B20860A9
:101000007047042018490968C90701D501200CE080
:1010100015480068400701D5022006E01248006824
:10102000C00601D5032000E00420C0B270470000D4
:10103000002002400420024023016745AB89EFCD28
:1010400010200240142002400820024000F8FF1F38
:1010500008F8FF1F0AF8FF1F0CF8FF1F0EF8FF1F0C
:101060001C200240202002400C20024038B5040021
:101070000425FFF7C6FF050005E000F00FF8FFF7B5
:10108000C0FF0500641EEDB2012D01D1002CF4D18A
:10109000002C00D105252800C0B232BD81B000204F
:1010A0000090FF20009002E00098401E0090009801
:1010B0000028F9D101B0704780B5FFF7B3FC5FF4A9
:1010C0008030FFF7DEFCFFF706FDC0B2012825D116
:1010D0001020FFF729FE0220FFF71AFE0020FFF77D
:1010E00035FD4FF48060FFF745FD4FF48060FFF75A
:1010F00037FD5FF480115FF48030FFF709FD0120B8
:10110000FFF711FD3920FFF7C0FD0028FAD00220BB
:10111000FFF70DFDFFF715FD0828FBD1012144F273
:10112000FC00FFF792FD01215FF4F010FFF79DFD39
:1011300001210120FFF799FD01BD80B56E48012115
:1011400082889140ADF8001003218DF8021018211B
:101150008DF8031000A90068FFF7BAF8674801216D
:1011600082889140ADF8001003218DF8021004210F
:101170008DF8031000A90068FFF7AAF86048012164
:101180008288914002685161012182889140ADF8C6
:10119000001003218DF8021010218DF8031000A912
:1011A0000068FFF795F857488179C90713D50121E1
:1011B0008288914002681161012182889140ADF8D6
:1011C000001003218DF8021010218DF8031000A9E2
:1011D0000068FFF77DF84C488179C90713D50121D4
:1011E0008288914002681161012182889140ADF8A6
:1011F000001003218DF8021010218DF8031000A9B2
:101200000068FFF765F84148006C552834D1404824
:10121000012182889140ADF8001003218DF8021061
:1012200018218DF8031000A90068FFF751F839481C
:10123000012182889140ADF8001003218DF8021041
:1012400004218DF8031000A90068FFF741F8324827
:101250000121828891400268516101218288914078
:10126000ADF8001003218DF8021010218DF8031045
:1012700000A90068FFF72CF801BD80B500215FF0E0
:101280000060FFF710F84FF4C060FFF705F801BDEC
:1012900000B585B0FFF710FFFFF74FFFFFF7EDFF39
:1012A0004FF4614000900020ADF804000020ADF83C
:1012B00006000020ADF808000020ADF80C000C205E
:1012C000ADF80A0000A91148C06BFEF731FF0F48C6
:1012D000006C552809D100A90C48C06EFEF728FF04
:1012E00001210A48C06EFEF771FF01210748C06B5B
:1012F000FEF76CFF05B000BD2C1C0008341C000874
:10130000241C00081C1C0008141C0008001C0008F9
:101310005C1C0008641C0008541C0008000021101C
:10132000422063308440A550C660E770088129914F
:101330004AA16BB18CC1ADD1CEE1EFF131121002F7
:1013400073325222B5529442F772D662399318839F
:101350007BB35AA3BDD39CC3FFF3DEE362244334C3
:1013600020040114E664C774A44485546AA54BB5EF
:1013700028850995EEE5CFF5ACC58DD55336722697
:1013800011163006D776F6669556B4465BB77AA73F
:1013900019973887DFF7FEE79DD7BCC7C448E558E3
:1013A0008668A7784008611802282338CCC9EDD98F
:1013B0008EE9AFF9488969990AA92BB9F55AD44A37
:1013C000B77A966A711A500A333A122AFDDBDCCBDF
:1013D000BFFB9EEB799B588B3BBB1AABA66C877C03
:1013E000E44CC55C222C033C600C411CAEED8FFD2F
:1013F000ECCDCDDD2AAD0BBD688D499D977EB66ED7
:10140000D55EF44E133E322E511E700E9FFFBEEF7E
:10141000DDDFFCCF1BBF3AAF599F788F8891A98140
:10142000CAB1EBA10CD12DC14EF16FE18010A1002A
:10143000C230E3200450254046706760B98398931A
:10144000FBA3DAB33DC31CD37FE35EF3B10290127A
:10145000F322D2323542145277625672EAB5CBA5E6
:10146000A89589856EF54FE52CD50DC5E234C324CA
:10147000A01481046674476424540544DBA7FAB7BA
:101480009987B8975FE77EF71DC73CD7D326F2361A
:101490009106B01657667676154634564CD96DC906
:1014A0000EF92FE9C899E9898AB9ABA9445865486A
:1014B00006782768C018E1088238A3287DCB5CDB5A
:1014C0003FEB1EFBF98BD89BBBAB9ABB754A545ABA
:1014D000376A167AF10AD01AB32A923A2EFD0FED26
:1014E0006CDD4DCDAABD8BADE89DC98D267C076C0A
:1014F000645C454CA23C832CE01CC10C1FEF3EFFFA
:101500005DCF7CDF9BAFBABFD98FF89F176E367E59
:10151000554E745E932EB23ED10EF01E10B582B0C1
:1015200072B6FFF7B5FE6548806B6549884206D103
:101530006248C06B6349884201D16048806BFFF705
:1015400085F96148C06B614908600024FFF771F8B4
:1015500000B2002800D10124E4B2002C0DD15A4879
:10156000006C552809D15848C06E58490860FFF7EB
:1015700060F800B2002800D10124E4B2002C21D18F
:101580005148C068524988421CD14F4800684E49B2
:101590004968484010F1010F14D14E484A49096882
:1015A00001604C48006840684B4908604B484A4914
:1015B0000968016047480068006880F30888474868
:1015C00000688047002200218020FEF765FFFFF7BA
:1015D00030F800B20128FAD1002200218120FEF764
:1015E0005BFFFFF726F800B20328FAD10120364945
:1015F000098B884034494969486101203249098C86
:1016000088403149C969486100F06EF800282AD144
:1016100001202D49098B88402B49496948610120E7
:101620002949098C88402849C9694861012026490F
:10163000098C88402449C96948612948009000986C
:10164000401E00900028FAD101201F49098C8840D3
:101650001D49C9690861224800900098401E009009
:101660000028FAD1E2E701201749098B8840164982
:101670004969486101201449098C88401249C969A7
:10168000486101201049098B88400F494969086168
:10169000144800900098401E00900028FAD10120C4
:1016A0000949098B88400849496948610D480090FB
:1016B0000098401E00900028FAD1E2E700040008DC
:1016C00055AAAA55A5A55A5A001C00085C1400206A
:1016D000F0DEBC9A501400204C140020541400205A
:1016E00000D4300000350C0080B506E001203349FD
:1016F000098B88403149496908613148FFF73AF858
:10170000012807D002281DD0B0F1FF3FF5D15FF0CE
:10171000FF3002BD2B480068002811D0294802681C
:101720002749294800F056F8274840682749884249
:1017300006D325480268264923484068FFF79EF8EB
:101740000020E6E71F4802681D491F4800F042F8E4
:101750001D4840681D498842CFD31B4802681C4978
:1017600019484068FFF78AF81448C0698068012169
:10177000124A128C9140084207D001200F49098C6F
:1017800088400E49C969486106E001200B49098C6F
:1017900088400A49C9690861084840698068012190
:1017A000064A128B91400842A0D001200349098BC0
:1017B00088400249496948619FE70000001C000811
:1017C0000800002058140020200C0020001C0008F5
:1017D000300C0020F8B504000D002E00B06900F0B8
:1017E0004FF8002705E031000E1D0A6850400860E0
:1017F0007F1C4FF40070874212DA00F03CF8062F8D
:1018000001D1361DF4E717F00F010229EBD1316841
:10181000C901326811EB526141403160361DE7E782
:101820002E00B06900F051F8776800F049F8C0194F
:1018300070602E003068206070686060B068A060E2
:10184000F068E0604FF48062E068C005C00D4019A8
:1018500010F1200114F11000FEF7B1FDF1BD000000
:101860000168002900D10121074A084B02FB013120
:1018700001600800704780B50548FFF7F1FF02BD21
:101880000349086070470000EDA3F87F311DA02ACE
:1018900004000020016889B2002900D10121AA2298
:1018A000514347F2736291FBF2F302FB131189B2C9
:1018B00001605FF48032B1FBF2F000FB1210704760
:1018C00080B50348FFF7E6FF02BD01490860704795
:1018D0000000002062B38B0708D0521E11F8013BB4
:1018E00000F8013B00F024808B07F6D1830740F01D
:1018F000208000BF103A07D330B4B1E83810103A56
:10190000A0E83810F9D230BC530724BFB1E8081062
:10191000A0E8081044BF51F8043B40F8043BD2074C
:1019200024BF31F8022B20F8022B44BF0B78037040
:101930007047083A07D3B1E80810083A40F8043B6A
:1019400040F804CBF7D25307E4E77047FEE7FEE721
:10195000FEE7FEE770477047704770477047704773
:1019600070477047704770477047704770477047BF
:1019700070477047704770477047704770477047AF
:10198000704770477047704770477047704770479F
:10199000704770477047704770477047704770478F
:1019A000704770477047704770477047704770477F
:1019B000704770477047704770477047704770476F
:1019C000704770477047704770477047704770475F
:1019D0007047704730BF704720BF704740BF7047A7
:1019E000BFF36F8F7047BFF34F8F7047BFF35F8FA9
:1019F000704701DF7047EFF31480704780F314885D
:101A0000BFF36F8F7047EFF30980704780F3098849
:101A10007047EFF30880704780F30888704762B61C
:101A2000704772B67047EFF31080704761B6704729
:101A300071B67047EFF31380704780F311887047D9
:101A4000EFF31280704740BA704700BA7047000049
:101A500010B504002000FEF74FFF10BD80B5054A09
:101A6000821A4FF400739A4202D2FEF747FF00E059
:101A7000002002BD001E000825E9FFFF60140000E1
:101A8000080000200000000085E7FFFF08000000BC
:101A900088000000000000200000000000A1228358
:101AA000E445C66748E96ACBAC0D8E2FD071F2537E
:101AB000349516B79839BA1B7CDD5EFFFEF786FCBD
:101AC000002801D0FEF784FC0020FFF727FD00F07E
:101AD00000F800F001B800000746384600F002F8B0
:101AE000FBE7000080B5C046C046024A110018203E
:101AF000ABBEFBE726000200000000000102030469
:101B00000102030406070809C046C046C046C04695
:101B1000FFF7D4FF020406080100000001000000E6
:101B2000FFFFFFFFFFFFFFFFFFFFFFFFFFFFFFFFC5
:101B3000FFFFFFFFFFFFFFFFFFFFFFFFFFFFFFFFB5
:101B4000FFFFFFFFFFFFFFFFFFFFFFFFFFFFFFFFA5
:101B5000FFFFFFFFFFFFFFFFFFFFFFFFFFFFFFFF95
:101B6000FFFFFFFFFFFFFFFFFFFFFFFFFFFFFFFF85
:101B7000FFFFFFFFFFFFFFFFFFFFFFFFFFFFFFFF75
:101B8000FFFFFFFFFFFFFFFFFFFFFFFFFFFFFFFF65
:101B9000FFFFFFFFFFFFFFFFFFFFFFFFFFFFFFFF55
:101BA000FFFFFFFFFFFFFFFFFFFFFFFFFFFFFFFF45
:101BB000FFFFFFFFFFFFFFFFFFFFFFFFFFFFFFFF35
:101BC000FFFFFFFFFFFFFFFFFFFFFFFFFFFFFFFF25
:101BD000FFFFFFFFFFFFFFFFFFFFFFFFFFFFFFFF15
:101BE000FFFFFFFFFFFFFFFFFFFFFFFFFFFFFFFF05
:101BF000FFFFFFFFFFFFFFFFFFFFFFFFFFFFFFFFF5
:101C000000200008FFDFFFF778563412F0DEBC9AA0
:101C100055000000000C014009000100000C0140CB
:101C2000080001000008014002000100000C014012
:101C30000A000100000C01400B00010000480040B8
:101C40000000000000000000000000000000000094
:101C50000000000000000000000000000000000084
:101C60000000000000000000000000000000000074
:101C700000580008FFA7FFF778563412F0DEBC9A30
:101C80000000000000000000000000000000000054
:101C90000000000000000000000000000000000044
:101CA0000000000000000000000000000000000034
:101CB0000000000000000000000000000000000024
:101CC0000000000000000000000000000000000014
:101CD0000000000000000000000000000000000004
:101CE00000000000020000000100000001000000F0
:101CF00000000000000000000000000000000000E4
:101D000000000000000000000000000000000000D3
:101D100000000000000000000000000000000000C3
:101D200000000000000000000000000000000000B3
:10200000B817002081920008A98D0008AB8D000848
:10201000AD8D0008AF8D0008B18D000800000000F4
:10202000140000000000000000000000B58D000852
:10203000B38D000800000000B78D0008C18D0008B6
:10204000CB8D0008CD8D0008CF8D0008D18D000804
:10205000D38D0008D58D0008D78D0008D98D0008D4
:10206000DB8D0008DD8D0008ED8D0008FD8D00087A
:10207000FF8D0008018E0008038E0008058E000801
:10208000078E0008098E00080B8E00081F8E0008BE
:10209000218E0008238E0008258E0008278E000858
:1020A000298E00082B8E00082D8E00082F8E000828
:1020B0003D8E0008478E0008498E0008CB8E000830
:1020C000CD8E0008CF8E0008D18E0008D38E000878
:1020D000D58E0008D78E00082D8F00082F8F00089E
:1020E0009B8F0008059000080790000809900008E1
:1020F0000B9000080D9000080F9000081190000848
:102100001390000815900008179000081990000817
:102110001B9000081D9000081F90000821900008E7
:1021200023900008259000082790000829900008B7
:1021300080B5DFF83002007800280CD14FF4005150
:10214000894800F06BFE002804D186480078401CC6
:102150008449087043E04FF40051834800F05EFE6C
:1021600000280FD17F480078401C7E4908707D48C8
:102170000078652801D3642001E07A480078794925
:1021800008702CE0774800210170764800780A2812
:1021900025D2002005E0754948F2CA4221F81020F6
:1021A000401C10280EDA724931F8101011F47041F9
:1021B000B1F5004FEFD16D496D4A32F8102021F88A
:1021C0001020EDE7694845F65A2101842822402174
:1021D000664800F0F3FFDFF8A40A0121017001BD99
:1021E00080B545F2555001F0E7F8032001F0E8F81A
:1021F000582001F0E9F801F0EBF801F0EEF801BD2C
:1022000080B572B6DFF87C1ADFF87C2A0A60DFF846
:102210007C1ADFF87C2A0A60DFF8781ADFF8782A5F
:102220000A60DFF8781ADFF8782A0A60DFF8741A93
:10223000DFF8742A0A60DFF8741ADFF8742A0A607B
:10224000DFF8701A897A60F30301DFF8680A817297
:10225000DFF8600A807A10F00F0001F03BF9DFF838
:10226000580A01210170DFF81C0ADFF81C1A01600E
:10227000DFF8180ADFF8181A0160DFF8200ADFF823
:10228000201A0160DFF8040ADFF8301A0160DFF875
:10229000240AC07A10F00F00012809D103208DF81C
:1022A00001000DF1010001F0FCF801F0EDF81CE077
:1022B000DFF8000AC07A0F21084216D1DFF8F409CE
:1022C000807A10F00F00012805D1DFF8E8090088B6
:1022D0008DF8000004E0DFF8DC0980888DF800004C
:1022E00000A801F0DEF801F0CFF801F009FB01BD14
:1022F00000B583B0DFF8C80900680090DFF8C409B2
:10230000006801900098DFF8C019884228D1019830
:10231000DFF8B819884223D1DFF8B4090121017030
:10232000DFF8B009DFF8B01909680160DFF8AC091F
:10233000DFF8A01909680160DFF8A409DFF89C192B
:10234000096888470090DFF89C0900990180DFF850
:10235000940900884FF6FF71884201D0012000E007
:1023600000200EBD8B0F002000100140940D0020B6
:102370006C0D002010B58AB072B6002005E04FF455
:10238000FA51491E0029FCD1401C00B26428F6DB3A
:10239000FFF7AEFF01F0F4FA00F0D0FE402200217A
:1023A000DFF8100900F0D3FE28224021DFF83809B9
:1023B00000F0CDFEDFF8FC08807A10F00F0003215A
:1023C000B0FBF1F202FB1102DFF8E808807A62F359
:1023D0000300DFF8E0188872DFF8D808C07A10F040
:1023E000F000DFF8D018C8724FF40050ADF80C00C0
:1023F00001208DF80E0048208DF80F0003A9DFF8AA
:10240000EC0800F0A5FC4FF40051DFF8E00800F004
:1024100005FD002811D10120DFF89818C97A60F372
:102420000301DFF89008C172DFF88808807A10F0A5
:10243000F000DFF88018887207E0DFF87808C07ACB
:1024400010F0F000DFF86C18C8728120ADF80400BD
:1024500001208DF8060048208DF8070001A9DFF85B
:10246000900800F075FC4420ADF8040001208DF8C0
:10247000060010208DF8070001A9DFF8740800F0AD
:1024800067FCDFF8700800210170DFF86C08042198
:1024900001605020401E0028FCD1DFF86008006871
:1024A000C0072AD4DFF85808042101605020401EDC
:1024B0000028FCD1DFF844080068C0071DD5DFF80C
:1024C0003808042101605020401E0028FCD1DFF8AC
:1024D0002C080068C00710D4DFF82408042101602C
:1024E0005020401E0028FCD1DFF810080068C0070B
:1024F00003D5DFF8000801210170DFF8F80700219B
:102500004170DFF8F407402101605020401E002890
:10251000FCD1DFF8E807006800062AD4DFF8E007FE
:10252000402101605020401E0028FCD1DFF8CC077C
:10253000006800061DD5DFF8C0074021016050206B
:10254000401E0028FCD1DFF8B4070068000610D454
:10255000DFF8AC07402101605020401E0028FCD16C
:10256000DFF898070068000603D5DFF88807012127
:102570004170DFF880070078002804D1DFF8740785
:102580004078002811D00120DFF82817C97A60F3BD
:102590000301DFF82007C1720120DFF81817897ADC
:1025A00060F30301DFF80C078172DFF80807C07AD7
:1025B0000F21084200F0E2804FF48040ADF80400A3
:1025C00001208DF8060048208DF8070001A9DFF8EA
:1025D000200700F0BDFB4FF40040ADF804000120DF
:1025E0008DF8060010208DF8070001A9DFF800071C
:1025F00000F0AEFBDFF8BC06407B10F0F000DFF827
:10260000B4164873DFF8AC0600214173DFF8E80622
:102610004FF4004101605020401E0028FCD1DFF83B
:10262000DC06006840043BD4DFF8D4064FF40041D8
:1026300001605020401E0028FCD1DFF8C006006871
:1026400040042DD5DFF8B0064FF400410160502062
:10265000401E0028FCD1DFF8A406006840041FD407
:10266000DFF89C064FF4004101605020401E002816
:10267000FCD1DFF888060068400411D50120DFF89E
:102680003416497B60F30301DFF82806417301200B
:10269000DFF82016497B60F30711DFF81806417355
:1026A0004FF48050ADF8040001208DF8060048205A
:1026B0008DF8070001A9DFF8380600F049FB4FF458
:1026C0000050ADF8040001208DF8060010208DF8B0
:1026D000070001A9DFF8180600F03AFBDFF818063A
:1026E0004FF4005101605020401E0028FCD1DFF85B
:1026F0000C060068C00441D4DFF804064FF4005112
:1027000001605020401E0028FCD1DFF8F005006871
:10271000C00433D5DFF8E0054FF4005101605020CC
:10272000401E0028FCD1DFF8D4050068C00425D481
:10273000DFF8CC054FF4005101605020401E002806
:10274000FCD1DFF8B8050068C00417D5DFF86405D0
:10275000407B0F21084208D0DFF85805407B10F07D
:102760000F00DFF85015487308E00120DFF844152A
:10277000497B60F30711DFF83C054173DFF834054E
:10278000C07A0F21084210D1DFF86C0545F28101B3
:10279000016045F28100ADF8040010208DF80700BB
:1027A00001A9DFF84C0500F0D3FA01F051FCDFF885
:1027B0000405807A10F00F00FFF722FD01F056FCAF
:1027C0002021DFF82C0500F037FB1021DFF8200571
:1027D00000F02FFBDFF82C0501210170DFF8D40495
:1027E000C07A10F00F00012804D1DFF81C05002189
:1027F000017003E0DFF8100501210170FFF7F0FC24
:1028000062B606E0DFF804050088801EDFF8FC14DD
:102810000880DFF8A004C07A10F00F0001285CD116
:10282000DFF8EC04B0F9000040F2FF31884206D135
:10283000DFF88004807A10F00F0001281CD0DFF848
:10284000D004B0F9000040F2FF31884205D1DFF832
:102850006404807A0F2108420ED0DFF8B404B0F986
:10286000000040F2FF31884237D1DFF84804807A17
:1028700010F00F00022830D1002005E0DFF86814C6
:10288000002221F81020401C1428F7D328224021D0
:10289000DFF8540400F092FC40220021DFF8140419
:1028A00000F08CFC0AE04FF40071DFF8440400F003
:1028B000C0FADFF86004401E0028FCD14FF400711C
:1028C000DFF82C0400F0AAFA0028ECD04FF40071D5
:1028D000DFF81C0400F0B0FAEBE7DFF8A40300789F
:1028E000C0072BD5DFF8980380B2400110F10850E3
:1028F00000210160DFF820040078411CDFF8182473
:102900001170C0B20A280BD2DFF80004B0F9000041
:102910000128BFF677AFDFF8F4030021018078E7E4
:10292000DFF8F40300210170DFF88803C07A0F217B
:1029300008427FF46EAFFFF7FBFB6AE7DFF8400366
:10294000007800060BD5DFF8380380B2400110F1A3
:1029500008501C300021016001F0AEFB59E7DFF8A0
:1029600020030078800669D5DFF8140380B24001A7
:1029700010F1085014300021016005E0DFF89C13CD
:102980000DF1120001F0A3FEDFF8941304A802F089
:1029900047F801287FF43DAFDFF81803807A10F084
:1029A0000F000128EAD0DFF80C03807A0F210842DB
:1029B000EAD17E208DF80200DFF860130DF10200ED
:1029C00002F02CF9DFF8541304A802F027F90020D4
:1029D0008DF8020014E000208DF808009DF8030037
:1029E0009DF8081048408DF80300DFF830130DF112
:1029F000030002F013F99DF80200401C8DF802005C
:102A00009DF802000728BFD29DF8020004A94018D3
:102A100080788DF803009DF803007D2803D09DF891
:102A200003007E28D7D17D208DF80800BB4902A87D
:102A300002F0F4F820208DF80800CFE790480078E5
:102A400000077FF5E6AE8E4880B2400110F10850D5
:102A50000C30002101609748807A10F00F000128A7
:102A600040F0A58009E09DF800005E2805D1AD4842
:102A700001210170AC4800210170AC4900A802F0AE
:102A8000E3F80400E4B2002C12D1A9480078002831
:102A90000DD0A848FD214170A648A549097881704C
:102AA0000921A54802F01EF9A14800210170B0E6F5
:102AB0009F4800789F4940189DF8001001719C487C
:102AC0000078401C9A4908709948007806280FD36E
:102AD0009848FD2141709748062181709548002152
:102AE000C1700921944802F0FDF89148002101705D
:102AF000E4B2002CC1D08B4800780028B3D0401E2F
:102B0000022850D89DF800005E2806D18548012192
:102B1000017085480021017044E09DF800005D28A7
:102B200003D18148602101703CE09DF800007E499E
:102B3000097848408DF800007B48002101707948F1
:102B40000078012804D011D303280BD005D30DE061
:102B50007A489DF80010C17008E078489DF8001090
:102B6000417103E075489DF8001081716D4800784F
:102B7000401C6C4908706B480078042812D16F48DB
:102B8000102181706D48002101716C48182101707D
:102B90006A48082141706A49684801F0CBFE6148E3
:102BA0000021017069E75F480021017065E7414835
:102BB000807A0F2108427FF42CAE09E09DF80100D5
:102BC0007E2805D15F48012101705F480021017016
:102BD00056490DF1010002F037F801287FF419AED3
:102BE000584800780028E9D0401E082842D89DF8AF
:102BF00001007E2806D1534801210170524800216E
:102C0000017036E09DF801007D2803D14E48202157
:102C100001702EE09DF801004B49097848408DF87D
:102C2000010048480078012809D148489DF8011062
:102C3000017044480078401C4249087016E0414841
:102C4000007842499DF8012042543E480078082807
:102C500007D13C480021017039493C4801F06AFE27
:102C600004E038480078401C364908703648002196
:102C70000170ADE7334800210170A9E79A0F0020E9
:102C8000300F002000040020B57800083C0F002021
:102C9000F17A0008400F00200F7C0008440F00204C
:102CA000017C0008480F0020177C00084C0F002012
:102CB0001F7F0008EC0C0020600F00208F7B0008B5
:102CC000380400083C04000855AAAA55A5A55A5A7C
:102CD0008C0F0020380F002000040008340F002063
:102CE000001E0008660F0020940D00200010014017
:102CF000000C0140640F0020140C0140080C01403E
:102D0000100C01400C0400200D040020720F002064
:102D1000780F0020006A18008D0F00204409002061
:102D20004C0B00208F0F0020900F00204008002047
:102D30008E0F0020F00E0020F10E00207C0E0020EF
:102D4000D00B0020910F0020920F0020940E002045
:102D5000F0B400220026002400250023002791F86B
:102D600003C01CF00F0C624691F803C05FEACC6C04
:102D700001D58B781A430B781B0621D003680024F9
:102D800006E0CD78482D02D10125A5400561641CDF
:102D9000082C14D20125A5400E882E40AE42F6D153
:102DA000A5000F2616FA05F7BB4312FA05F52B43CB
:102DB000CD78282DE5D10125A5404561E7E70360E1
:102DC0000B884FF48074A34226D34368002420E08C
:102DD000012514F10806B5400E882E40AE4217D1E9
:102DE000A5000F2616FA05F7BB4312FA05F52B438B
:102DF000CD78282D04D1012514F10806B540456190
:102E0000CD78482D04D1012514F10806B54005619F
:102E1000641C082CDCD34360F0BC7047002280683F
:102E200080B2084201D0012200E000221000C0B2AE
:102E3000704789B20161704789B24161704770B4CF
:102E400000220024002300252D4E36683300C0F3F5
:102E50000346350086B2320010F44016B6F5401F26
:102E600008D133F07063264C246834F07064244D2C
:102E70002C600FE0C40205D50324AC40A34353F0FB
:102E8000706307E0440DE4B2240112FA04F4A34392
:102E900053F07063C9B2002905D0400DC0B20001E3
:102EA00012FA00F003431648036070BC704710B478
:102EB00000220F2311F00304E4B2A400A3401A007F
:102EC000C9B28B100F4C54F8233033EA0202C9B256
:102ED0008B100C4C44F82320C9B28A10094B53F8CC
:102EE0002220C0B211F00303DBB29B0098401043D4
:102EF000C9B28910034A42F8210010BC7047000093
:102F0000040001400800014080B5DFF89804032167
:102F100001600320ADF8000001208DF802001420AC
:102F20008DF8030000A9DFF88004FFF711FF01BD51
:102F30007047DFF87004022101602820401E00283D
:102F4000FCD1DFF86004012101602820401E002828
:102F5000FCD1DFF85804022101602820401E00281F
:102F6000FCD1DFF84804012101602820401E002820
:102F7000FCD101207047DFF83404012101602820D2
:102F8000401E0028FCD1DFF8240402210160282023
:102F9000401E0028FCD1DFF80C040121016028202C
:102FA000401E0028FCD1DFF8FC030221016028202C
:102FB000401E0028FCD17047DFF8F00301210160BA
:102FC0002820401E0028FCD1DFF8E0030221016028
:102FD0002820401E0028FCD1DFF8C8030121016031
:102FE0002820401E0028FCD1DFF8C0030121016029
:102FF0002820401E0028FCD17047DFF8B0030121D3
:1030000001602820401E0028FCD1DFF8980302212F
:1030100001602820401E0028FCD1DFF88803012130
:1030200001602820401E0028FCD1DFF88003012128
:1030300001602820401E0028FCD170473220DFF8B4
:103040006C1301220A602821491E0029FCD1DFF8F7
:10305000541302220A602821491E0029FCD1DFF8FE
:10306000441301220A602821491E0029FCD104E0F2
:103070002821491E0029FCD1401E00B2002804D09E
:10308000CB4909688907F3D40220C84901220A60A4
:103090002821491E0029FCD100B2704708210EE00A
:1030A000C24A0223136040002822521E002AFCD18B
:1030B000BC4A012313602822521E002AFCD10A00B8
:1030C000511E12B2002A0CD0B84A012313602822E4
:1030D000521E002AFCD10206E2D5B24A0223136036
:1030E000E1E7B248012101602820401E0028FCD100
:1030F000704708210020AB4A0223136014E040000F
:10310000AA4A012313602822521E002AFCD1A54A94
:10311000012313602822521E002AFCD1A44A1268FF
:10312000920701D550F001000A00511E12B2002A88
:10313000E5D19E4901220A60C0B2704780B5FFF711
:10314000E3FEFFF7F5FE9B48A221018001BD70B5AB
:1031500004000D001600FFF7ECFE96480088C0B290
:10316000FFF79CFFFFF76AFF2800C0B2FFF796FF4A
:10317000FFF764FFFFF7FFFEFFF7DBFE8D480088D7
:1031800050F00100C0B2FFF789FFFFF757FF06E0DC
:10319000FFF7AFFF2070FFF70FFF641C761EB6B27B
:1031A000002E0AD0B6B2012EF2D1FFF7A2FF207096
:1031B000FFF723FFFFF7DFFEF0E770BD2DE9F843CF
:1031C00006000D009046002700245FF00009002053
:1031D000ADB2102195FBF1F202FB11521000D0F1BB
:1031E000100189461FFA88F8102198FBF1F10F00B1
:1031F0001FFA88F8102198FBF1F202FB11821400EB
:1032000080B2002828D1FFB2002F13D12200D2B201
:10321000290089B2300000F091F800F0B1F88BE09D
:103220001022290089B2300000F088F800F0A8F8D8
:10323000103510363800471EC0B20028F0D1E4B275
:10324000002C79D02200D2B2290089B2300000F0DF
:1032500075F800F095F86FE0FFB2002F2AD14846CC
:10326000C0B280B21FFA88F8404519D24A46D2B29D
:10327000290089B2300000F061F800F081F8B8EB65
:103280000902D2B25FFA89F919EB050189B25FFA36
:1032900089F919EB060000F051F800F071F84BE0E5
:1032A0002200D2B2290089B2300000F047F800F0C5
:1032B00067F841E05FFA89F9B8EB09081FFA88F866
:1032C000102098FBF0F71FFA88F8102098FBF0F414
:1032D00004FB10845FFA89F9B9F1000F1BD04A464C
:1032E000D2B2290089B2300000F028F800F048F886
:1032F0005FFA89F919EB05055FFA89F919EB0606FA
:1033000009E01022290089B2300000F017F800F01F
:1033100037F8103510363800471EC0B20028F0D1FB
:10332000E4B2002C08D02200D2B2290089B23000C9
:1033300000F004F800F024F8BDE8F18370B5040053
:103340000D001600FFF7F5FD1A480088C0B2FFF720
:10335000A5FEFFF773FE2800C0B2FFF79FFEFFF740
:103360006DFE05E02078FFF799FEFFF767FE641C0D
:103370003000461EC0B20028F4D1FFF7FCFD70BD3E
:1033800080B50020ADF80000FFF7D3FD09480088A4
:10339000C0B2FFF783FEFFF751FE0028F4D0FFF71D
:1033A000EAFD01BD10080140000801401408014079
:1033B00008080140680F00200A4980B20860704781
:1033C0000949C0B208607047084980B20860704778
:1033D00004484AF6AA210160704702484CF6CC41E5
:1033E0000160704700300040043000400830004069
:1033F00080B59D48006830F480409B4908603A20C1
:1034000001F017FD4FF4804001F031FE01BD80B5A1
:103410004FF4804001F02BFE342001F00AFD924869
:10342000006850F480409049086001BD80B5FFF706
:10343000DFFF01BD10B50400E4B203208B4900FB9F
:1034400004100178232001F051FDE4B203208749E4
:1034500000FB04104178242001F048FDE4B2032071
:10346000824900FB04108178252001F03FFD2100F6
:10347000C9B20A2001F03AFD10BD80B50100C9B201
:103480000A2001F033FD01BD80B50521072001F0C0
:103490002DFD01BD80B50100C9B23E2001F026FD21
:1034A00001BD80B50178092001F020FD01BD38B5CE
:1034B00004000D00362001F0BCFC3B2001F0B9FCFB
:1034C0002900C9B2200001F06BFD352001F0B1FCEC
:1034D00031BD00001CB5040001F09EFC64484FF4AF
:1034E000807101604FF4C870401E0028FCD1614813
:1034F0004FF4807101604FF4C870401E0028FCD169
:103500005B484FF4807101605A484FF4806101605C
:103510004FF4FA50401E0028FCD156484FF48071F9
:1035200001604FF400615448FFF778FC0028F8D19F
:10353000302001F051FC4FF400614F48FFF76EFC62
:103540000028F8D14A484FF480710160E4B2012CA0
:1035500010D10024E4B2242C34D2E4B2474810EB5A
:1035600044004178E4B2454810F8140001F0BEFC74
:10357000641CEFE7E4B2002C10D10024E4B2242C48
:1035800020D2E4B23E4810EB44004178E4B23C481B
:1035900010F8140001F0AAFC641CEFE7E4B2022C5E
:1035A00010D100240BE0E4B2364810EB440041781F
:1035B000E4B2344810F8140001F098FC641CE4B242
:1035C000242CF0D3362001F034FC4FF480400090DE
:1035D00000208DF804000C208DF8050001208DF8E6
:1035E000060000A801F0ECFC4FF4804001F03FFD24
:1035F000002426E05020401E0028FCD13D2001F090
:1036000018FC70210842F5D1232001F067FCE4B2D8
:103610000321164A01FB04210870242001F05EFCFE
:10362000E4B20321114A01FB04214870252001F076
:1036300055FCE4B203210D4A01FB0421887000BF50
:10364000641CE4B2FF2C0AD2362001F0F2FB200009
:10365000C0B2FFF712FF332001F0EBFBCEE70821E9
:10366000182001F043FC13BD0004014010040020A9
:10367000100801401408014000080140F0900008C3
:10368000A89000083891000880B5AF48007800285D
:1036900004D14FF48071AD48FFF7CBFB01BD80B57D
:1036A000A9480078002827D0A7480078A6490978BB
:1036B000491CA54A1170182190FBF1F201FB120080
:1036C00017281ED1A0480078492802D39E4800211F
:1036D00001704FF480719D48FFF7A0FB002805D0D2
:1036E0004FF480719948FFF7A7FB04E04FF4807115
:1036F0009648FFF79EFB04E04FF480719348FFF774
:103700009BFB01BD10F03F0180B2800910F03F002B
:10371000C0B22F2290FBF2F302FB1300C0B20028CC
:1037200000D1401CC9B2C0B241182F2291FBF2F364
:1037300002FB1311C0B2C9B211EB801080B2704706
:1037400010F03F00704700B2012805DB8048008878
:10375000401C7F49088007E000B2002804D57C485F
:103760000088401E7A4908807948B0F90000032893
:1037700001DB022002E07648B0F9000074490880BD
:103780007348B0F900007FF01F01884202DA7FF031
:103790001F0002E06E48B0F900006D4908807047D4
:1037A00080306C49B1F90010032200B202FB010025
:1037B000042190FBF1F0674908806648B0F90000E9
:1037C000052802DA634805210180634861490988B8
:1037D000018070476048B0F90000032804DB5E48B0
:1037E0000088801E5C490880704730B481780029C9
:1037F0003CD15A4902880A80584902888A80574930
:10380000897A11F00F0101290CD15449827B8A7009
:1038100052490022CA705149827B8A714F49002265
:10382000CA7123E04D49897A0F2211420CD14B49CC
:10383000027A8A704949427ACA704849027A8A7182
:103840004649427ACA7111E04449897A11F00F0160
:1038500002290BD14149027A8A704049427ACA70E2
:103860003E49027A8A713D49427ACA7101883B4ACF
:103870001288914233D100F203018078384A1288CD
:103880000123C0B2041D052594FBF5F4A3401A439F
:10389000334B1A80002207E0C0B2304BC3180C78BB
:1038A0001C74491C401C521CD2B2052A17D22B4B47
:1038B0009B7A13F00F03012B03D1C0B22F28EBD357
:1038C0000DE0264B9B7A0F24234205D0234B9B7A95
:1038D00013F00F03022BDFD1C0B22F28DCD330BC92
:1038E000704780B5C0B21D494018007C1D49097859
:1038F000002901D01C480078C0B2FFF79BFD01BD34
:103900001648807A10F00F00002806D0022808D050
:1039100007D216481649016003E0144815490160B2
:10392000FFE7704738B504000D00134801F03CFC78
:10393000291889B2104801F02EFC02210E4801F02E
:103940004CFC0E48047031BD9A0F0020000C014061
:10395000740F0020720F0020760F0020EC0C002066
:10396000780F00207B0F00207A0F0020540F0020DA
:103970004492000830920008002C01409B0F002068
:1039800080B501F03FFC5FF4803001F06AFC01F08B
:1039900092FCC0B2012825D1102001F0B5FD022013
:1039A00001F0A6FD002001F0C1FC4FF4806001F0A1
:1039B000D1FC4FF4806001F0C3FC5FF480115FF430
:1039C000803001F095FC012001F09DFC392001F0D0
:1039D0004CFD0028FAD0022001F099FC01F0A1FC76
:1039E0000828FBD1012145F61D2001F01EFD012113
:1039F000DFF8040601F029FD01BD80B54FF4005049
:103A0000ADF8000001208DF8020048208DF8030079
:103A100000A9DFF8E805FFF79BF94FF48040ADF807
:103A2000000001208DF8020004208DF8030000A999
:103A3000DFF8C805FFF78CF9DFF8C4054FF4004143
:103A400001604FF40040ADF8000010208DF8030035
:103A500000A9DFF8A805FFF77BF9DFF8A805042126
:103A600001600420ADF8000010208DF8030000A9CB
:103A7000DFF89405FFF76CF90820ADF8000010207E
:103A80008DF8030000A9DFF88005FFF761F9B02089
:103A9000ADF8000004208DF8030000A9DFF86805E8
:103AA000FFF756F92020ADF8000000208DF8030044
:103AB00000A9DFF85405FFF74BF94020ADF80000EE
:103AC00000208DF8030000A9DFF83C05FFF740F95E
:103AD000DFF83005042101600420ADF8000010205B
:103AE0008DF8030000A9DFF82405FFF731F9DFF8AE
:103AF00020054FF2C40101604FF2C400ADF8000090
:103B000010208DF8030000A9DFF80005FFF720F969
:103B10000220ADF8000018208DF8030000A9DFF89E
:103B2000EC04FFF715F94FF48060ADF800001820A1
:103B30008DF8030000A9DFF8D404FFF709F94FF46A
:103B40000060ADF8000004208DF8030000A9DFF844
:103B5000BC04FFF7FDF84FF40060ADF8000004204E
:103B60008DF8030000A9DFF8A004FFF7F1F8DFF8F3
:103B700094044FF480610160DFF898044FF4885199
:103B800001604FF4A850ADF8000010208DF803003C
:103B900000A9DFF87404FFF7DBF84FF40070ADF80C
:103BA000000018208DF8030000A9DFF85C04FFF77F
:103BB000CFF8DFF850044FF4004101604FF40040AB
:103BC000ADF8000001208DF8020010208DF80300F0
:103BD00000A9DFF83404FFF7BBF8DFF8340438211C
:103BE00001603820ADF8000010208DF8030000A916
:103BF000DFF81804FFF7ACF8DFF81C044FF440714D
:103C000001604FF44070ADF8000010208DF8030003
:103C100000A9DFF8F803FFF79BF80121DFF8FC03A8
:103C2000FFF70DF901BD80B50021DFF8F40301F0C5
:103C3000D0FC4FF4A06001F079FC12208DF8000058
:103C400003208DF8010003208DF8020001208DF87B
:103C5000030000A801F071FC1C208DF8000000207A
:103C60008DF8010000208DF8020001208DF803007E
:103C700000A801F062FC28208DF8000002208DF8D9
:103C8000010000208DF8020001208DF8030000A83B
:103C900001F053FC1B208DF8000002208DF801007C
:103CA00000208DF8020001208DF8030000A801F02B
:103CB00044FC25208DF8000003208DF80100002031
:103CC0008DF8020001208DF8030000A801F035FCFA
:103CD00027208DF8000001208DF8010000208DF8CC
:103CE000020001208DF8030000A801F026FC23202B
:103CF0008DF8000002208DF8010002208DF80200EE
:103D000001208DF8030000A801F017FC1E208DF89B
:103D1000000003208DF8010001208DF80200012031
:103D20008DF8030000A801F008FC00220321BD4823
:103D300001F055FC01220121BB4801F050FC01BDFE
:103D400000B597B000200E9000208DF83C000020B8
:103D50008DF83D005FF4602010900020119001204C
:103D60008DF848000EA9B14801F090FC072301220C
:103D70000121AE4801F0F7FC01224FF40871AB4875
:103D800001F0B7FC0121A94801F0A6FCA74801F009
:103D9000BFFCA64801F0C1FC0028FAD1A34801F0FD
:103DA000C6FCA24801F0C8FC0028FAD10020ADF8FA
:103DB00024000020ADF826000020ADF828000220E5
:103DC000ADF82A000020ADF82C000020ADF82E0040
:103DD0001820ADF830008020ADF832000720ADF893
:103DE000340009A9924801F025FD01226021904884
:103DF00001F04EFD01218E4801F03CFD0E21022014
:103E0000FFF755F84FF48040079000208DF8200010
:103E10000C208DF8210000208DF8220007A801F069
:103E2000CFF842F6E060ADF804000520ADF80000E0
:103E30000020ADF806000020ADF8020000A97D4882
:103E400001F024F9012205217A4801F089F90021C5
:103E5000784801F0A0F90121764801F09EF901228D
:103E60000621744801F070F90121724801F05EF9F1
:103E70004FF6FF70ADF804004720ADF800000020B9
:103E8000ADF806000020ADF8020000A96A4801F074
:103E9000FDF801224721684801F062F942F2283119
:103EA000654801F078F942F2BE31634801F075F9D6
:103EB00043F2C821604801F072F943F25E315E4876
:103EC00001F06FF901221E215B4801F03DF901214B
:103ED000594801F02BF94FF6FF70ADF804002F2080
:103EE000ADF800000020ADF806000020ADF802009B
:103EF00000A95FF0804001F0C9F801222F215FF096
:103F0000804001F02DF90720ADF804000320ADF842
:103F100000000020ADF806000020ADF8020000A966
:103F2000464801F0B3F86020ADF84C000120ADF830
:103F30004E000320ADF852000020ADF8540013A944
:103F40003E4801F0BEF808213C4801F01AF9012171
:103F50003A4801F008F90121384801F0E7F83848FB
:103F600003904FF48050ADF810004FF40050ADF8BE
:103F700012004FF48060ADF814000020ADF8180076
:103F80000820ADF8160003A92E4801F097FC012186
:103F90002C4801F0E1FC4FF4614003900020ADF8A3
:103FA00010000020ADF812000020ADF81400002031
:103FB000ADF818000C20ADF8160003A9224801F056
:103FC0007DFC012240F225511F4801F0D3FC012263
:103FD00040F226611C4801F0CDFC01211A4801F095
:103FE000BBFC1A4801F036FD012001F04DFD012017
:103FF00001F033FD17B000BD0700041000100140B0
:10400000101001401408014000080140000C01405C
:10401000140C014010080140100C01400002300057
:10402000002000089AC302009C8202000024014084
:104030000030014000080040002C01400004004016
:10404000A08601000038014000480040905F010058
:1040500080B5FFF7D2FCFFF7E6FDFFF771FEC02049
:1040600001F02EFD012001F027FD01BD80B50E48B5
:10407000807A10F00F00002805D0012806D10B48E7
:104080000B49016002E009480A4901600648807A4C
:1040900010F00F00C0B20028012803D803480068C0
:1040A0000068804701BD00BFEC0C00202C0F0020F1
:1040B000749200086892000810B586B0DFF8000519
:1040C0004078E03800F00482401E00F0D8810E38BD
:1040D00000F0AE81401E00F0B781401E00F0DE808F
:1040E000401E00F07981401E00F06681801E02288B
:1040F0006DD9C01E00F01981401E032800F2148201
:10410000DFF8BC044078D0F1FC04E4B2DFF8B4047A
:1041100010EB8400DFF8A81489788170E4B2DFF82E
:10412000A40410EB8400DFF89814C9784170E4B25D
:10413000DFF8900410EB8400DFF884140979C17073
:10414000E4B2DFF880045A2100F824101C22402138
:10415000DFF87004FFF732F8E4B2DFF8680410F813
:1041600024005A2832D1FF208DF80000D4F1FC0041
:104170008DF80100E4B2DFF84C0410EB8400807885
:104180008DF80200E4B2DFF83C0410EB84004078C4
:104190008DF80300E4B2DFF82C0410EB8400C07843
:1041A0008DF8040000208DF8050000208DF8060031
:1041B00000208DF8070000208DF8080000208DF801
:1041C000090009210DF1010000F08CFDACE1DFF8E0
:1041D000F0034078D0F1FB04E4B2DFF8E80310EB21
:1041E0008400DFF8DC1389788170E4B2DFF8D4034F
:1041F00010EB8400DFF8C813C9784170E4B2DFF82F
:10420000C40310EB8400DFF8B8130979C170E4B27D
:10421000DFF8B0035A2100F824101C224021DFF8F7
:10422000A403FEF7CBFFE4B2DFF8980310F82400F4
:104230005A2832D1FF208DF80000D4F1FB008DF810
:104240000100E4B2DFF87C0310EB840080788DF885
:104250000200E4B2DFF86C0310EB840040788DF8C4
:104260000300E4B2DFF85C0310EB8400C0788DF843
:10427000040000208DF8050000208DF806000020C5
:104280008DF8070000208DF8080000208DF8090047
:1042900009210DF1010000F025FD45E11C2240211E
:1042A000DFF82003FEF753FF04243AE0E4B2DFF81E
:1042B000140310F824005A2832D1FF208DF8000092
:1042C000D4F1FB008DF80100E4B2DFF8F80210EB46
:1042D000840080788DF80200E4B2DFF8E80210EB89
:1042E000840040788DF80300E4B2DFF8D80210EBC8
:1042F0008400C0788DF8040000208DF805000020AF
:104300008DF8060000208DF8070000208DF80800C9
:1043100000208DF8090009210DF1010000F0E2FCF8
:10432000641CE4B2072CC1D3FEE01C224021DFF85C
:104330009402FEF70CFF00243AE0E4B2DFF88402B6
:1043400010F824005A2832D1FF208DF80000D4F153
:10435000FC008DF80100E4B2DFF8680210EB840085
:1043600080788DF80200E4B2DFF8580210EB840088
:1043700040788DF80300E4B2DFF8480210EB8400C7
:10438000C0788DF8040000208DF8050000208DF81D
:10439000060000208DF8070000208DF8080000209E
:1043A0008DF8090009210DF1010000F09BFC641C4F
:1043B000E4B2042CC1D3B7E0DFF80402D0F8020065
:1043C0000390DFF8FC01D0F80600049008220021D9
:1043D00003A8FEF7F3FEA7E00822002103A8FEF7DA
:1043E000B6FEF3208DF8010003988DF802000398C3
:1043F000000A8DF803000398000C8DF80400039860
:10440000000E8DF8050004988DF806000498000A47
:104410008DF807000498000C8DF808000498000E31
:104420008DF8090009210DF1010000F05BFC7BE033
:10443000DFF89401DFF888114988C18102220E213A
:10444000DFF88801FEF7BAFE02220E21DFF87C01B8
:10445000FEF77DFEF0208DF80100DFF86C01C089C9
:104460008DF80200DFF86001C08980B2000A8DF883
:10447000030009210DF1010000F034FC54E0DFF8E5
:1044800040014088DFF84811098880B288421ED078
:10449000DFF83C110880DFF83C010078002816D0D6
:1044A000DFF83401DFF8341109680160DFF830010A
:1044B000DFF824110968016072B6DFF81401018881
:1044C000DFF82001DFF818211268904762B62BE070
:1044D000E2208DF80100DFF8F80000888DF8020076
:1044E000DFF8EC00008880B2000A8DF80300DFF8E6
:1044F000F80000888DF80400DFF8EC00008880B236
:10450000000A8DF8050000208DF8060000208DF8C7
:10451000070000208DF8080000208DF8090009210F
:104520000DF1010000F0DEFBDFF8940000210170C6
:1045300006B010BDC0B27E281AD1DFF8B0000078F6
:104540000A2808D1DFF8A80080B2400110F1085015
:104550001C3001210160DFF86800FF210170DFF8E5
:104560008C0001210170DFF88C000021017025E032
:10457000C0B27D2804D1DFF87C00202101701DE04D
:10458000DFF8681009780A2907D30D48FF21017068
:10459000DFF85800002101700DE0DFF850100978B5
:1045A000074ADFF850301B78584088540F4800788D
:1045B000401C0E4908700F48002101707047000030
:1045C000DC0E0020600E0020EC0C0020FA0C002015
:1045D000660F00208C0F0020380F00200404000814
:1045E000280F0020001E0008080400207C0F002077
:1045F000300F00207D0F002070B504000D007C48B6
:10460000807A0F21084214D1002605E07949200064
:1046100000F004FB641C761CF6B2EDB2AE42F5D39A
:10462000754880B2400110F108500C300121016042
:1046300019E06F48807A10F00F00012813D100268E
:1046400005E06C49200000F0E9FA641C761CF6B223
:10465000EDB2AE42F5D3684880B2400110F1085087
:104660000C3001210160002070BD38B50400002528
:104670005F48807A0F21084210D1002500E06D1CB0
:10468000EDB2062D07D25D49200000F0DDFA641C72
:1046900000B20028F3D12800C0B217E05448807A55
:1046A00010F00F00012810D1002500E06D1CEDB2C4
:1046B0000A2D07D25149200000F0C6FA641C00B24E
:1046C0000028F3D12800C0B200E0002032BD7CB544
:1046D00005000C002878102840F08980B5F801000A
:1046E0004FF47F4108424FD0B5F901004FF480717B
:1046F00088427CD1E878297950EA0120697950EA2A
:104700000140A97950EA0160642190FBF1F00100B9
:104710008DF8041000B200128DF805005E208DF8AF
:10472000020021000DF1020000F078FA10208DF84F
:10473000020021000DF1020000F070FA00250BE0EC
:1047400000209DF8011048408DF8010021000DF176
:10475000010000F063FA6D1C022D48DA01A8285C04
:104760008DF801009DF801005E2803D09DF801003E
:104770005D28E5D15D208DF8010021000DF10100DB
:1047800000F04CFA6020DCE75E208DF8020021008A
:104790000DF1020000F042FA00260AE000209DF828
:1047A000001048408DF80000210000A800F036FA03
:1047B000761C032E1BDA002E04D1B5F801008DF80B
:1047C000000003E0701980788DF800009DF800006B
:1047D0005E2803D09DF800005D28DFD15D208DF8B4
:1047E0000000210000A800F019FA6020D7E773BD8F
:1047F000EC0C002040080020300F0020440900206D
:10480000DFF8F41389B2490111F10851C0B211EB7C
:10481000800100220A60DFF8E41389B2490111F136
:104820000851C0B211EB800100220A60DFF8D013FA
:1048300089B2490111F10851C0B211EB8001012088
:1048400008607047DFF8B81389B2490111F10851C7
:10485000C0B211EB800100220A60DFF89C1389B21C
:10486000490111F10851C0B211EB8001012008602B
:104870007047DFF8841389B2490111F10851C0B2C1
:1048800011EB800100220A60DFF8701389B2490140
:1048900011F10851C0B211EB80010120086070478E
:1048A000DFF8581389B2490111F10851C0B211EB78
:1048B000800100220A60DFF8401389B2490111F13A
:1048C0000851C0B211EB800101200860704730B47C
:1048D0000A784B780C78641C14F00704A3421ED0AD
:1048E000D2B211EB021304789C70002307E0D2B21D
:1048F00011EB02141C191D18AD78E5705B1C072B19
:10490000F5DB521C12F007020A70C04880B2400169
:1049100010F10850143001210160012008E0BB486B
:1049200080B2400110F108501430012101600020D4
:1049300030BC704730B40A784B780C78641C14F0A3
:104940000704A34216D0D2B211EB021304789C7074
:10495000002307E0D2B211EB02141C191D18AD7828
:10496000E5705B1C072BF5DB521C12F007020A7086
:10497000012000E0002030BC704700B587B01E2148
:104980008DF8001008218DF80110F1218DF802102A
:104990008DF8030000208DF8040000208DF805003C
:1049A00000208DF8060000208DF8070000208DF80B
:1049B0000800944900A8FFF78AFF07B000BD00B5C2
:1049C00087B01E218DF8001008218DF80110F2210A
:1049D0008DF802108DF8030000208DF804000020EF
:1049E0008DF8050000208DF8060000208DF80700E6
:1049F00000208DF80800834900A8FFF768FF07B082
:104A000000BD80B58178F12902D0F22904D006E0FA
:104A1000C078FFF717FF02E0C078FFF7F1FE01BD95
:104A200030B44A780B789A4201D1002016E04A78D7
:104A3000D2B211EB02139B780370002307E0D2B2CD
:104A400011EB02141C19E4781D18AC705B1C0F2BC1
:104A5000F5DB521C12F007024A70012030BC70478F
:104A600010B504002000FFF7DBFF012801D0002073
:104A700012E020781E2804D12000FFF7C2FF00209A
:104A80000AE020781F2801D1002005E0207810F0EE
:104A90001F00FFF7B5FE012010BD10B504005748F8
:104AA000006801215A4A92F900209140084227D01B
:104AB000574800785749405C401C55490978554A89
:104AC0008854534800785349405C052808D350481F
:104AD0000078FFF7E5FE4E480078FFF74EFF1AE03A
:104AE0004B4800784A490978491C494A117048499D
:104AF000097811F01F01464A1170207001200FE063
:104B000043480078401C424908704148007810F042
:104B10001F003F4908703E4800780028BFD10020A0
:104B200010BD0AE03C490978491C3B4A11703A49DA
:104B3000097811F01F01384A11702F4909680122C4
:104B4000354B93F900309A401142EBD03249097845
:104B5000314A1278521C304B1A702F4A127812F0D8
:104B60001F022D4B1A7001700120704710B5040010
:104B700025492000FFF774FF002802D0082060704C
:104B80000CE02000FFF789FF002802D000206070B1
:104B900004E02000FFF7C5FF0020607010BD38B5AD
:104BA0000400A51C2078202800D3FEE720781E28CA
:104BB00020D213480068012194F900209140084256
:104BC00018D10D480068012194F900209140084255
:104BD00005D02078FFF74DFE2078FFF7F0FE207813
:104BE0000C49002242542878002803D005492000AF
:104BF000FFF76DFE31BD0000040400205C0F0020B3
:104C0000580F00204C0B0020D00B0020300F00204C
:104C1000AB0F0020400E0020AC0F0020B1F90020A7
:104C2000521CD2B24B889A4201D100200BE0B1F95C
:104C300000205218007810710888401C08800878FD
:104C4000C0B2088001207047B1F90220B1F90030EC
:104C50009A4201D100200BE0B1F9022052181279DA
:104C600002704888401C48808878C0B24880012083
:104C7000704710B450F8041B81B102681218001D6F
:104C800050F8043BDC0744BFA9F10104E31852F8D3
:104C9000044B43F8044B091FF9D1EBE710BC7047F4
:104CA00010B53549FFF7BAFF040024B2002C01D13A
:104CB000002007E0012240F22771304800F05AFE40
:104CC000200000B210BD70B504000D00002604E005
:104CD0002000FFF7E5FF641C761CAE42F8DB3000D5
:104CE00000B270BD70B582B004000D00EDB2002DB1
:104CF00001D1002039E07E208DF8000000A8FFF7E8
:104D0000CFFF002604E02000FFF7CAFF641C761CDA
:104D1000F6B2EDB2AE421FD220787E280CD17D20B3
:104D20008DF8000000A8FFF7BBFF5E208DF80000A3
:104D300000A8FFF7B5FFE9E720787D28E3D17D20C3
:104D40008DF8000000A8FFF7ABFF5D208DF8000094
:104D500000A8FFF7A5FFD9E77E208DF8000000A886
:104D6000FFF79EFFF6B2300000B276BD80B5024973
:104D7000FFF76AFF02BD0000480A0020003801402A
:104D800010B482494FF480620A600021002215E0CD
:104D90007E4B4FF480541C6049007D4B1B68C3F36D
:104DA000C02313F0010319437A4B4FF480641C6055
:104DB0004000764B4FF480641C60521CD2B2082A2B
:104DC00006D20306E4D5734B4FF480541C60E3E72E
:104DD0007148017010BC70476C494FF480620A60E2
:104DE000002100220DE069494FF480530B606949AE
:104DF0004FF480630B60400064494FF480630B60A4
:104E0000521CD2B2082A06D20106ECD561494FF4F1
:104E100080530B60EBE770475E484FF480610160A0
:104E20005A484FF4805101605A484FF48071016034
:104E3000704710B5040055484FF4807101604FF47D
:104E400000615648FDF7EAFF0028F8D12000C0B203
:104E5000FFF796FF504800784E494FF480720A6081
:104E6000C0B210BD38B504000D0048484FF4807141
:104E700001604FF400614948FDF7D0FF0028F8D1E8
:104E80002000C0B2FFF7A8FF2800C0B2FFF7A4FFC0
:104E9000414800783F494FF480720A60C0B232BD89
:104EA00038B504000D0039484FF4807101604FF4AB
:104EB00000613A48FDF7B2FF0028F8D12000C0B2E7
:104EC000FFF78AFF2800C0B2FFF75AFF3248007888
:104ED00030494FF480720A60C0B232BD80B5DB2128
:104EE00050F0C000C0B2FFF7DBFF02BD80B5C9B211
:104EF000C0B2FFF7B7FF01BD70B504000D0016008A
:104F000022484FF4807101604FF400612348FDF79F
:104F100085FF0028F8D12000C0B2FFF75DFF287898
:104F2000FFF75AFF761E200602D51B48007828702E
:104F30006D1CF6B2002EF2D116484FF4807101605C
:104F400070BD70B504000D00160010484FF480715C
:104F500001604FF400611148FDF760FF0028F8D1AF
:104F60002000C0B2FFF738FF2878FFF709FF761E50
:104F7000200602D50848007828706D1CF6B2002E75
:104F8000F2D104484FF48071016070BD14080140F3
:104F90000808014010080140AA0F00200008014045
:104FA00080B50A00D2B201007F20FFF7A5FF01BD46
:104FB00080B50A00D2B20100FF20FFF7C2FF01BD99
:104FC0008179002938D02C490968026891432A4A1E
:104FD00011602A49096802689143284A11600179E1
:104FE000254A5158026811430279234B99502449AC
:104FF000096802689143224A1160224909680268DF
:105000009143204A1160417910290CD11C4909684B
:10501000026811431A4A11601A4909680068084376
:105020001849086010E04179134A51580268114349
:105030004079114A115007E001790F4A515802682E
:10504000914300790C4A11507047002100220A4B0D
:105050001B6803401A000C4B1B68034203D0002A54
:1050600001D0012100E000210800C0B270470649CC
:105070000860704700000000000401400404014083
:10508000080401400C0401401404014010B40288DB
:1050900012F08F0202800288CB884C8823431A4387
:1050A00002808A8882850A8802851E4A904202D040
:1050B0001D4A904201D1097A01860121818210BCEA
:1050C000704770B4002300240022058C4EF6FF7652
:1050D00035400584058C2C0085882A00858B2B00A3
:1050E00048F6FF752B400D8853EA05234DF6FF75F2
:1050F0002C400D8954EA05344D8854EA0534CD8896
:10510000A0F84050074DA84202D0074DA84204D154
:105110009204920C898952EA8112828083830484EA
:1051200070BC7047002C014000340140C9B2002916
:1051300004D0018851F00101018004E0018840F2AF
:10514000FE32114001807047D2B2002A03D082891A
:105150001143818103E0828932EA01018181704734
:10516000018582827047C9B2002904D0018851F0BC
:105170008001018004E0018840F27F32114001800B
:1051800070470022838B1A004FF2FF731A4052EAD5
:10519000012282837047818670470187704781872B
:1051A0007047A0F840107047808C704730B40022E0
:1051B00000230024058A0D402B008089084004004C
:1051C0009BB2002B04D0A4B2002C01D0012200E03D
:1051D00000221000C0B230BC704789B2C9430182BE
:1051E000704750F8041B61B150F8042BD30744BF3B
:1051F000A9F101039A18002342F8043B091FFAD1D0
:10520000EFE77047DFF8A802006850F00100DFF810
:10521000A0120860DFF89C020068DFF89C120840CA
:10522000DFF890120860DFF888020068DFF88C125F
:105230000840DFF87C120860DFF87402006830F480
:105240008020DFF86C120860DFF86802006830F434
:10525000FE00DFF860120860DFF8640200210160E0
:105260007047DFF84C12096831F48031DFF84022D2
:105270001160DFF83C12096831F48021DFF8302238
:105280001160B0F5803F03D0B0F5802F09D011E058
:10529000DFF81C02006850F48030DFF81412086058
:1052A00008E0DFF80C02006850F4A020DFF80012DC
:1052B0000860FFE7704780B50020009000200021C3
:1052C000312000F0D2F801000098401C0090C9B2D3
:1052D000002903D10098B0F5A06FF1D1312000F082
:1052E000C4F8002801D0012000E00020C0B202BDB7
:1052F0000022704B1B681A0032F47C1208430243F0
:105300006C48026070476F49C0B208607047002166
:10531000684A1268110089088900014365480160E4
:1053200070476448006810F00C0070470021614A23
:105330001268110031F0F00101435E4801607047CE
:1053400000215C4A1268110031F4E06101435948C0
:10535000016070470021574A1268110031F4605112
:1053600051EAC00153480160704730B40022002167
:10537000002300244F4D2D6815F00C052A00002A4B
:1053800004D0042A05D0082A06D021E04F49016044
:1053900020E04F4901601DE04649096811F4701191
:1053A000890C891C434A126812F48033002B03D104
:1053B000484A514301600AE03E4A1268920303D50D
:1053C000454A5143016002E0414A5143016001E016
:1053D0003E4901603749096811F0F00212093F495E
:1053E000545C0168E14041603249096811F4E062AF
:1053F000120A3A49545C4168E14081602D490968CC
:1054000011F46052D20A3549545C4168E140C160F0
:105410002849096811F44042920B3149545CC16833
:10542000B1FBF4F1016130BC7047C9B2002905D06D
:105430002C49096808432B49086005E02949096897
:1054400031EA0000274908607047C9B2002905D039
:105450002549096808432449086005E0224909688C
:1054600031EA000020490860704710B40022002390
:105470000021C0B24409E4B22200012A02D10C4941
:105480000B6806E0022A02D10F490B6801E01749B8
:105490000B68C0B210F01F0201209040034201D0FF
:1054A000012100E000210800C0B210BC70470000DC
:1054B00000100240041002400000FFF8FFFFF6FE5B
:1054C00008100240600042422010024000127A00A0
:1054D000001BB70000093D00808D5B00589200085A
:1054E0008C920008181002401C1002402410024048
:1054F0000021DFF834201268110011F03801014357
:10550000DFF8240001607047DFF81C10096831F0F3
:105510001001DFF814201160DFF80C10096808434F
:10552000DFF804100860704700200240DFF84C11DB
:105530000843DFF844110860704770B4002100226E
:10554000002300240F25C678002E35D04A4909686B
:1055500011F4E061D1F5E061090AD1F10404CD4014
:105560004178A14082782A4011430901027812F063
:105570000302D2B2D2009140027892103B4B53F812
:105580002220FF23047814F00304E4B2E400A340D3
:105590009A4319400A4301788910344B43F821207B
:1055A00001784911374A0123007810F01F0013FADF
:1055B00000F042F821000AE0017849112A4A01234B
:1055C000007810F01F0013FA00F042F8210070BCC0
:1055D00070472D4A11400843264908607047F0B4CF
:1055E0000025FF2600230024234F3F6817F4E067BF
:1055F000D7F5E0673F0A3C00D4F104073D00E640E0
:10560000C9B211FA05F4D2B216EA02010C43240120
:1056100010F0C005AD09C0F301263000C0B2C000D3
:105620008440FF20F6B2F10088400300144850F88F
:1056300025009843124941F82500114850F82500EB
:1056400020430F4941F82500F0BC7047002110F0BD
:105650001F00010006480068012212FA01F1084308
:10566000034908607047000080E100E000E400E0CA
:1056700004ED00E008ED00E00CED00E00000FA05AC
:1056800018ED00E000E100E080FFFF1F30B40023D0
:10569000002244682300DFF8944123400C680D7910
:1056A00054EA0524234343608368DFF884412340A0
:1056B000CC688D682C434D7954EA450423438360BC
:1056C000C36A33F47003097C491E0A43D2B253EA19
:1056D0000253C36230BC7047C9B2002904D081684C
:1056E00051F00101816003E081684908490081604F
:1056F000704700230B00D2B2002A04D04168DBB20D
:105700001943416003E04168DBB29943416070474F
:10571000816851F0080181607047002180680007AE
:1057200001D5012100E000210800C0B27047816866
:1057300051F004018160704700218068400701D565
:10574000012100E000210800C0B27047C9B2002961
:1057500004D0816851F4A001816003E0816831F4D4
:10576000A00181607047F0B400240025C9B20A2965
:1057700011D3C4680725B1F10A0603277E43B5405B
:10578000AC43DBB2B1F10A050326754313FA05F504
:105790002C43C4600EE004690725032606FB01F6CE
:1057A000B540AC43DBB2032505FB01F513FA05F563
:1057B0002C430461D2B2072A10D2446B1F23551E1A
:1057C0000526754313FA05F5AC43C9B2521E0523ED
:1057D0005A4311FA02F52C43446324E0D2B20D2A55
:1057E00010D2046B1F23D51F0526754313FA05F548
:1057F000AC43C9B2D21F05235A4311FA02F52C4318
:10580000046310E0C46A1F23B2F10D050526754339
:1058100013FA05F5AC43C9B20D3A05235A4311FA00
:1058200002F52C43C462F0BC70470000FFFEF0FF9D
:10583000FDF7F1FF10B4002203881A0012F4415260
:105840000B884C8823438C882343CC8823430C89C2
:1058500023434C8923438C892343CC8923431A4314
:105860000280828B4FF2FF731A408283098A018281
:1058700010BC7047C9B2002904D0018851F0400122
:10588000018004E001884FF6BF721140018070472B
:1058900010B400230024C9B20909C9B20B000121C8
:1058A00099400C00D2B2002A03D081882143818024
:1058B00002E08188A143818010BC70472DE9F0434C
:1058C00085B004000D000020002600275FF00008CE
:1058D0005FF00009A146218A08004CF6FF710840DC
:1058E000E98808432082A0894EF6F3110840A98870
:1058F0002A8911436A8911430843A081A08A4FF67F
:10590000FF410840A9890843A08200A8FFF72DFDA8
:105910001048814501D1039E00E0029E192000FB42
:1059200006F029688900B0FBF1F76420B7FBF0F0BE
:1059300000010109642202FB11785FEA081132318B
:105940006422B1FBF2F111F00F010843208105B090
:10595000BDE8F08300380140C9B2002904D0818934
:1059600051F40051818104E081894DF6FF721140AC
:105970008181704770B400240025002600230300B5
:105980000800C0B24009C0B2040089B211F01F0083
:1059900005000120A8400600012C01D10C3304E0D1
:1059A000022C01D1103300E01433D2B2002A03D00C
:1059B00018683043186002E01868B043186070BC83
:1059C0007047C905C90D818070478088C005C00D2A
:1059D000704789B2C9430180704770B40A0000243F
:1059E0000023002500211600F6B27609F6B2350034
:1059F00092B212F01F063300012616FA03F3012DAE
:105A000002D181890B4006E0022D02D1018A0B40B0
:105A100001E0818A0B4092B2140AA4B2012111FA6A
:105A200004F400880440002B03D0002C01D0012195
:105A300000E000210800C0B270BC704700220023C3
:105A400089B2090A0A00012191400B009BB2D94397
:105A500001807047164908607047012806D1134835
:105A6000006850F00100114908600CE010F1020FCD
:105A700006D10E480068400840000C49086002E06A
:105A80000C48002101607047C0B2002806D00748CA
:105A9000006850F002000549086005E0034800680E
:105AA00030F00200014908607047000010E000E09B
:105AB00014E000E018E000E00649C0B2086070475A
:105AC0000021054A1268110031F0E001014302484B
:105AD0000160704710000E4200700040DFF8B00A0D
:105AE000002101707047002019E0DFF8A81A31F892
:105AF000101011F47041B1F5004F0FD1DFF8941A76
:105B000031F8101048F6C942914207D0DFF8881AE0
:105B1000DFF8802A32F8102021F81020401C1028CD
:105B2000E3DBDFF86C0A01210170704700228284F8
:105B30004FF6E17202820905090D81864FF4167154
:105B40000187818951F006018181704710B50400F9
:105B5000DFF8480A0068401CDFF8401A0860DFF8E8
:105B60003C0A0068022803DBDFF8300A00210160EC
:105B700000F0FCFADFF8240A0068002848D1DFF8BA
:105B8000200A407B0F21084221D0DFF80C0A008A4E
:105B900000043DD5DFF8000AB0F9101009B220006A
:105BA000FFF7C4FFDFF8F009008A48F2CA418842D3
:105BB00004D0DFF8F0094FF400410160208850F074
:105BC00001002080DFF8E0090121017020E0DFF80A
:105BD000C809008800041BD5DFF8BC09B0F9001023
:105BE00009B22000FFF7A2FFDFF8AC09008848F2F5
:105BF000CA41884204D0DFF8AC094FF4004101608B
:105C0000208850F001002080DFF89C0901210170FC
:105C100010BD81894FF6E17211408181018840F207
:105C2000FE3211400180704710B50400DFF87C0996
:105C30004FF2C5410160208840F2FE3108402080CB
:105C4000DFF864090078002812D0022870D017D33A
:105C5000042800F01D81C0F0C380062800F0C48134
:105C6000C0F06C81082800F06B82C0F0138275E2EE
:105C70002000FFF7CEFFDFF830090021017074E249
:105C8000DFF81C09407B0F21084228D0DFF8080903
:105C9000408A4FF4704108421CD0DFF8FC08B0F98C
:105CA000121009B22000FFF741FF208850F00100D8
:105CB0002080DFF8E408408A48F2CA41884204D0D4
:105CC000DFF8E0084FF480410160DFF8DC080221D2
:105CD00001702CE0DFF8D0080021017027E0DFF828
:105CE000B80840884FF4704108421CD0DFF8A8087B
:105CF000B0F9021009B22000FFF718FF208850F019
:105D000001002080DFF89008408848F2CA418842AC
:105D100004D0DFF890084FF480410160DFF8880874
:105D20000221017003E0DFF88008002101701CE20D
:105D3000DFF86C08407B0F21084228D0DFF85808B4
:105D4000808A4FF4704108421CD0DFF84C08B0F94B
:105D5000141009B22000FFF7E9FE208850F001007E
:105D60002080DFF83408808A48F2CA41884204D093
:105D7000DFF830084FF400510160DFF82C080321F0
:105D800001702CE0DFF820080021017027E0DFF827
:105D9000080880884FF4704108421CD0DFF8F807EB
:105DA000B0F9041009B22000FFF7C0FE208850F0BF
